{
  "abi": [
    {
      "inputs": [
        {
          "internalType": "string",
          "name": "_name",
          "type": "string"
        },
        {
          "internalType": "string",
          "name": "_symbol",
          "type": "string"
        }
      ],
      "stateMutability": "nonpayable",
      "type": "constructor"
    },
    {
      "anonymous": false,
      "inputs": [
        {
          "indexed": true,
          "internalType": "address",
          "name": "owner",
          "type": "address"
        },
        {
          "indexed": true,
          "internalType": "address",
          "name": "approved",
          "type": "address"
        },
        {
          "indexed": true,
          "internalType": "uint256",
          "name": "tokenId",
          "type": "uint256"
        }
      ],
      "name": "Approval",
      "type": "event"
    },
    {
      "anonymous": false,
      "inputs": [
        {
          "indexed": true,
          "internalType": "address",
          "name": "owner",
          "type": "address"
        },
        {
          "indexed": true,
          "internalType": "address",
          "name": "operator",
          "type": "address"
        },
        {
          "indexed": false,
          "internalType": "bool",
          "name": "approved",
          "type": "bool"
        }
      ],
      "name": "ApprovalForAll",
      "type": "event"
    },
    {
      "anonymous": false,
      "inputs": [
        {
          "indexed": true,
          "internalType": "address",
          "name": "previousOwner",
          "type": "address"
        },
        {
          "indexed": true,
          "internalType": "address",
          "name": "newOwner",
          "type": "address"
        }
      ],
      "name": "OwnershipTransferred",
      "type": "event"
    },
    {
      "anonymous": false,
      "inputs": [
        {
          "indexed": false,
          "internalType": "address",
          "name": "account",
          "type": "address"
        }
      ],
      "name": "Paused",
      "type": "event"
    },
    {
      "anonymous": false,
      "inputs": [
        {
          "indexed": true,
          "internalType": "uint256",
          "name": "tokenId",
          "type": "uint256"
        },
        {
          "indexed": false,
          "internalType": "uint64",
          "name": "expiration",
          "type": "uint64"
        }
      ],
      "name": "SubscriptionUpdate",
      "type": "event"
    },
    {
      "anonymous": false,
      "inputs": [
        {
          "indexed": true,
          "internalType": "address",
          "name": "from",
          "type": "address"
        },
        {
          "indexed": true,
          "internalType": "address",
          "name": "to",
          "type": "address"
        },
        {
          "indexed": true,
          "internalType": "uint256",
          "name": "tokenId",
          "type": "uint256"
        }
      ],
      "name": "Transfer",
      "type": "event"
    },
    {
      "anonymous": false,
      "inputs": [
        {
          "indexed": false,
          "internalType": "address",
          "name": "account",
          "type": "address"
        }
      ],
      "name": "Unpaused",
      "type": "event"
    },
    {
      "inputs": [
        {
          "internalType": "uint256",
          "name": "",
          "type": "uint256"
        }
      ],
      "name": "_price",
      "outputs": [
        {
          "internalType": "uint256",
          "name": "",
          "type": "uint256"
        }
      ],
      "stateMutability": "view",
      "type": "function"
    },
    {
      "inputs": [
        {
          "internalType": "address",
          "name": "to",
          "type": "address"
        },
        {
          "internalType": "uint256",
          "name": "tokenId",
          "type": "uint256"
        }
      ],
      "name": "approve",
      "outputs": [],
      "stateMutability": "nonpayable",
      "type": "function"
    },
    {
      "inputs": [
        {
          "internalType": "address",
          "name": "owner",
          "type": "address"
        }
      ],
      "name": "balanceOf",
      "outputs": [
        {
          "internalType": "uint256",
          "name": "",
          "type": "uint256"
        }
      ],
      "stateMutability": "view",
      "type": "function"
    },
    {
      "inputs": [
        {
          "internalType": "uint256",
          "name": "tokenId",
          "type": "uint256"
        }
      ],
      "name": "burn",
      "outputs": [],
      "stateMutability": "nonpayable",
      "type": "function"
    },
    {
      "inputs": [
        {
          "internalType": "uint256",
          "name": "_tokenId",
          "type": "uint256"
        }
      ],
      "name": "cancelSubscription",
      "outputs": [],
      "stateMutability": "payable",
      "type": "function"
    },
    {
      "inputs": [
        {
          "internalType": "uint256",
          "name": "_tokenId",
          "type": "uint256"
        }
      ],
      "name": "expiresAt",
      "outputs": [
        {
          "internalType": "uint64",
          "name": "",
          "type": "uint64"
        }
      ],
      "stateMutability": "view",
      "type": "function"
    },
    {
      "inputs": [
        {
          "internalType": "uint256",
          "name": "tokenId",
          "type": "uint256"
        }
      ],
      "name": "getApproved",
      "outputs": [
        {
          "internalType": "address",
          "name": "",
          "type": "address"
        }
      ],
      "stateMutability": "view",
      "type": "function"
    },
    {
      "inputs": [
        {
          "internalType": "address",
          "name": "owner",
          "type": "address"
        },
        {
          "internalType": "address",
          "name": "operator",
          "type": "address"
        }
      ],
      "name": "isApprovedForAll",
      "outputs": [
        {
          "internalType": "bool",
          "name": "",
          "type": "bool"
        }
      ],
      "stateMutability": "view",
      "type": "function"
    },
    {
      "inputs": [
        {
          "internalType": "uint256",
          "name": "_tokenId",
          "type": "uint256"
        }
      ],
      "name": "isRenewable",
      "outputs": [
        {
          "internalType": "bool",
          "name": "",
          "type": "bool"
        }
      ],
      "stateMutability": "view",
      "type": "function"
    },
    {
      "inputs": [
        {
          "internalType": "address",
          "name": "to",
          "type": "address"
        },
        {
          "internalType": "uint64",
          "name": "_duration",
          "type": "uint64"
        },
        {
          "internalType": "bytes",
          "name": "_signature",
          "type": "bytes"
        },
        {
          "internalType": "uint256",
          "name": "_value",
          "type": "uint256"
        },
        {
          "internalType": "uint64",
          "name": "_renewable",
          "type": "uint64"
        },
        {
          "internalType": "uint256",
          "name": "_timeStamp",
          "type": "uint256"
        }
      ],
      "name": "mintSubscription",
      "outputs": [],
      "stateMutability": "payable",
      "type": "function"
    },
    {
      "inputs": [],
      "name": "name",
      "outputs": [
        {
          "internalType": "string",
          "name": "",
          "type": "string"
        }
      ],
      "stateMutability": "view",
      "type": "function"
    },
    {
      "inputs": [],
      "name": "owner",
      "outputs": [
        {
          "internalType": "address",
          "name": "",
          "type": "address"
        }
      ],
      "stateMutability": "view",
      "type": "function"
    },
    {
      "inputs": [
        {
          "internalType": "uint256",
          "name": "tokenId",
          "type": "uint256"
        }
      ],
      "name": "ownerOf",
      "outputs": [
        {
          "internalType": "address",
          "name": "",
          "type": "address"
        }
      ],
      "stateMutability": "view",
      "type": "function"
    },
    {
      "inputs": [],
      "name": "pause",
      "outputs": [],
      "stateMutability": "nonpayable",
      "type": "function"
    },
    {
      "inputs": [],
      "name": "paused",
      "outputs": [
        {
          "internalType": "bool",
          "name": "",
          "type": "bool"
        }
      ],
      "stateMutability": "view",
      "type": "function"
    },
    {
      "inputs": [
        {
          "internalType": "uint256",
          "name": "_tokenId",
          "type": "uint256"
        },
        {
          "internalType": "uint64",
          "name": "duration",
          "type": "uint64"
        }
      ],
      "name": "renewSubscription",
      "outputs": [],
      "stateMutability": "payable",
      "type": "function"
    },
    {
      "inputs": [],
      "name": "renounceOwnership",
      "outputs": [],
      "stateMutability": "nonpayable",
      "type": "function"
    },
    {
      "inputs": [
        {
          "internalType": "address",
          "name": "from",
          "type": "address"
        },
        {
          "internalType": "address",
          "name": "to",
          "type": "address"
        },
        {
          "internalType": "uint256",
          "name": "tokenId",
          "type": "uint256"
        }
      ],
      "name": "safeTransferFrom",
      "outputs": [],
      "stateMutability": "nonpayable",
      "type": "function"
    },
    {
      "inputs": [
        {
          "internalType": "address",
          "name": "from",
          "type": "address"
        },
        {
          "internalType": "address",
          "name": "to",
          "type": "address"
        },
        {
          "internalType": "uint256",
          "name": "tokenId",
          "type": "uint256"
        },
        {
          "internalType": "bytes",
          "name": "data",
          "type": "bytes"
        }
      ],
      "name": "safeTransferFrom",
      "outputs": [],
      "stateMutability": "nonpayable",
      "type": "function"
    },
    {
      "inputs": [
        {
          "internalType": "address",
          "name": "operator",
          "type": "address"
        },
        {
          "internalType": "bool",
          "name": "approved",
          "type": "bool"
        }
      ],
      "name": "setApprovalForAll",
      "outputs": [],
      "stateMutability": "nonpayable",
      "type": "function"
    },
    {
      "inputs": [
        {
          "internalType": "bytes4",
          "name": "interfaceId",
          "type": "bytes4"
        }
      ],
      "name": "supportsInterface",
      "outputs": [
        {
          "internalType": "bool",
          "name": "",
          "type": "bool"
        }
      ],
      "stateMutability": "view",
      "type": "function"
    },
    {
      "inputs": [],
      "name": "symbol",
      "outputs": [
        {
          "internalType": "string",
          "name": "",
          "type": "string"
        }
      ],
      "stateMutability": "view",
      "type": "function"
    },
    {
      "inputs": [
        {
          "internalType": "uint256",
          "name": "tokenId",
          "type": "uint256"
        }
      ],
      "name": "tokenURI",
      "outputs": [
        {
          "internalType": "string",
          "name": "",
          "type": "string"
        }
      ],
      "stateMutability": "view",
      "type": "function"
    },
    {
      "inputs": [
        {
          "internalType": "address",
          "name": "from",
          "type": "address"
        },
        {
          "internalType": "address",
          "name": "to",
          "type": "address"
        },
        {
          "internalType": "uint256",
          "name": "tokenId",
          "type": "uint256"
        }
      ],
      "name": "transferFrom",
      "outputs": [],
      "stateMutability": "nonpayable",
      "type": "function"
    },
    {
      "inputs": [
        {
          "internalType": "address",
          "name": "newOwner",
          "type": "address"
        }
      ],
      "name": "transferOwnership",
      "outputs": [],
      "stateMutability": "nonpayable",
      "type": "function"
    },
    {
      "inputs": [],
      "name": "unpause",
      "outputs": [],
      "stateMutability": "nonpayable",
      "type": "function"
    }
  ],
  "bytecode": {
    "object": "0x60806040523480156200001157600080fd5b5060405162002478380380620024788339810160408190526200003491620001a0565b8181600062000044838262000299565b50600162000053828262000299565b505050620000706200006a6200008560201b60201c565b62000089565b50506006805460ff60a01b1916905562000365565b3390565b600680546001600160a01b038381166001600160a01b0319831681179093556040519116919082907f8be0079c531659141344cd1fd0a4f28419497f9722a3daafe3b4186f6b6457e090600090a35050565b634e487b7160e01b600052604160045260246000fd5b600082601f8301126200010357600080fd5b81516001600160401b0380821115620001205762000120620000db565b604051601f8301601f19908116603f011681019082821181831017156200014b576200014b620000db565b816040528381526020925086838588010111156200016857600080fd5b600091505b838210156200018c57858201830151818301840152908201906200016d565b600093810190920192909252949350505050565b60008060408385031215620001b457600080fd5b82516001600160401b0380821115620001cc57600080fd5b620001da86838701620000f1565b93506020850151915080821115620001f157600080fd5b506200020085828601620000f1565b9150509250929050565b600181811c908216806200021f57607f821691505b6020821081036200024057634e487b7160e01b600052602260045260246000fd5b50919050565b601f8211156200029457600081815260208120601f850160051c810160208610156200026f5750805b601f850160051c820191505b8181101562000290578281556001016200027b565b5050505b505050565b81516001600160401b03811115620002b557620002b5620000db565b620002cd81620002c684546200020a565b8462000246565b602080601f831160018114620003055760008415620002ec5750858301515b600019600386901b1c1916600185901b17855562000290565b600085815260208120601f198616915b82811015620003365788860151825594840194600190910190840162000315565b5085821015620003555787850151600019600388901b60f8161c191681555b5050505050600190811b01905550565b61210380620003756000396000f3fe6080604052600436106101815760003560e01c8063715018a6116100d1578063b4061f8b1161008a578063cde317af11610064578063cde317af1461045d578063e985e9c514610499578063f2fde38b146104b9578063faea173b146104d957600080fd5b8063b4061f8b1461040a578063b88d4fde1461041d578063c87b56dd1461043d57600080fd5b8063715018a61461037a578063776ce8681461038f5780638456cb59146103a25780638da5cb5b146103b757806395d89b41146103d5578063a22cb465146103ea57600080fd5b806323b872dd1161013e57806342966c681161011857806342966c68146102ed5780635c975abb1461030d5780636352211e1461032c57806370a082311461034c57600080fd5b806323b872dd146102985780633f4ba83a146102b857806342842e0e146102cd57600080fd5b806301ffc9a71461018657806306fdde03146101bb578063081812fc146101dd578063095ea7b31461021557806317c95709146102375780632123508314610285575b600080fd5b34801561019257600080fd5b506101a66101a1366004611b06565b610506565b60405190151581526020015b60405180910390f35b3480156101c757600080fd5b506101d0610532565b6040516101b29190611b73565b3480156101e957600080fd5b506101fd6101f8366004611b86565b6105c4565b6040516001600160a01b0390911681526020016101b2565b34801561022157600080fd5b50610235610230366004611bbb565b6105eb565b005b34801561024357600080fd5b5061026d610252366004611b86565b6000908152600860205260409020546001600160401b031690565b6040516001600160401b0390911681526020016101b2565b610235610293366004611b86565b610705565b3480156102a457600080fd5b506102356102b3366004611be5565b610790565b3480156102c457600080fd5b506102356107c2565b3480156102d957600080fd5b506102356102e8366004611be5565b6107d4565b3480156102f957600080fd5b50610235610308366004611b86565b6107ef565b34801561031957600080fd5b50600654600160a01b900460ff166101a6565b34801561033857600080fd5b506101fd610347366004611b86565b61081d565b34801561035857600080fd5b5061036c610367366004611c21565b61087d565b6040519081526020016101b2565b34801561038657600080fd5b50610235610903565b61023561039d366004611c53565b610915565b3480156103ae57600080fd5b50610235610b5d565b3480156103c357600080fd5b506006546001600160a01b03166101fd565b3480156103e157600080fd5b506101d0610b6d565b3480156103f657600080fd5b50610235610405366004611c7f565b610b7c565b610235610418366004611d5d565b610b8b565b34801561042957600080fd5b50610235610438366004611ddd565b610ed2565b34801561044957600080fd5b506101d0610458366004611b86565b610f0a565b34801561046957600080fd5b506101a6610478366004611b86565b6000908152600960205260409020546001600160401b034281169116101590565b3480156104a557600080fd5b506101a66104b4366004611e44565b610f7e565b3480156104c557600080fd5b506102356104d4366004611c21565b610fac565b3480156104e557600080fd5b5061036c6104f4366004611b86565b600b6020526000908152604090205481565b600061051182611022565b8061052c57506001600160e01b03198216638c65f84d60e01b145b92915050565b60606000805461054190611e6e565b80601f016020809104026020016040519081016040528092919081815260200182805461056d90611e6e565b80156105ba5780601f1061058f576101008083540402835291602001916105ba565b820191906000526020600020905b81548152906001019060200180831161059d57829003601f168201915b5050505050905090565b60006105cf82611072565b506000908152600460205260409020546001600160a01b031690565b60006105f68261081d565b9050806001600160a01b0316836001600160a01b0316036106685760405162461bcd60e51b815260206004820152602160248201527f4552433732313a20617070726f76616c20746f2063757272656e74206f776e656044820152603960f91b60648201526084015b60405180910390fd5b336001600160a01b038216148061068457506106848133610f7e565b6106f65760405162461bcd60e51b815260206004820152603d60248201527f4552433732313a20617070726f76652063616c6c6572206973206e6f7420746f60448201527f6b656e206f776e6572206f7220617070726f76656420666f7220616c6c000000606482015260840161065f565b61070083836110d1565b505050565b61070f338261113f565b61075b5760405162461bcd60e51b815260206004820181905260248201527f43616c6c6572206973206e6f74206f776e6572206e6f7220617070726f766564604482015260640161065f565b6000818152600860209081526040808320805467ffffffffffffffff19169055600b90915281205561078d600761119e565b50565b61079b335b8261113f565b6107b75760405162461bcd60e51b815260040161065f90611ea8565b6107008383836111f5565b6107ca611366565b6107d26107c2565b565b61070083838360405180602001604052806000815250610ed2565b6107f833610795565b6108145760405162461bcd60e51b815260040161065f90611ea8565b61078d816113c0565b6000818152600260205260408120546001600160a01b03168061052c5760405162461bcd60e51b8152602060048201526018602482015277115490cdcc8c4e881a5b9d985b1a59081d1bdad95b88125160421b604482015260640161065f565b60006001600160a01b0382166108e75760405162461bcd60e51b815260206004820152602960248201527f4552433732313a2061646472657373207a65726f206973206e6f7420612076616044820152683634b21037bbb732b960b91b606482015260840161065f565b506001600160a01b031660009081526003602052604090205490565b61090b611366565b6107d26000611463565b61091f338361113f565b61096b5760405162461bcd60e51b815260206004820181905260248201527f43616c6c6572206973206e6f74206f776e6572206e6f7220617070726f766564604482015260640161065f565b6000828152600b602052604090205461098e906001600160401b03831690611f0b565b34146109d35760405162461bcd60e51b8152602060048201526014602482015273141c9a58d9481a5cc81b9bdd0818dbdc9c9958dd60621b604482015260640161065f565b6006546000838152600b60205260409020546001600160a01b03909116906108fc90610a09906001600160401b03851690611f0b565b6040518115909202916000818181858888f19350505050158015610a31573d6000803e3d6000fd5b506000828152600860205260408120546001600160401b031690811580610a695750426001600160401b0316826001600160401b0316105b15610ae9576000848152600960205260409020546001600160401b0342811691161115610ad85760405162461bcd60e51b815260206004820152601d60248201527f537562736372697074696f6e206973206e6f742072656e657761626c65000000604482015260640161065f565b610ae28342611f22565b9050610af6565b610af38383611f22565b90505b600084815260086020908152604091829020805467ffffffffffffffff19166001600160401b038516908117909155915191825285917f2ec2be2c4b90c2cf13ecb6751a24daed6bb741ae5ed3f7371aabf9402f6d62e8910160405180910390a250505050565b610b65611366565b6107d2610b5d565b60606001805461054190611e6e565b610b873383836114b5565b5050565b6040516bffffffffffffffffffffffff19606088811b821660208401526001600160c01b031960c089811b8216603486015286901b16603c840152604483018690526064830184905230901b166084820152600090609801604051602081830303815290604052805190602001209050833414610c405760405162461bcd60e51b81526020600482015260136024820152726e656564207468652073616d652076616c756560681b604482015260640161065f565b600a85604051610c509190611f49565b9081526040519081900360200190205460ff1615610ca25760405162461bcd60e51b815260206004820152600f60248201526e6572726f72207369676e617475726560881b604482015260640161065f565b42610caf8361012c611f65565b1115610cfd5760405162461bcd60e51b815260206004820152601c60248201527f4572726f72206e6f742074696d6520666f72207369676e617475726500000000604482015260640161065f565b610d078186611583565b6001600160a01b0316610d226006546001600160a01b031690565b6001600160a01b031614610d6a5760405162461bcd60e51b815260206004820152600f60248201526e29b4b3b730ba3ab9329022b93937b960891b604482015260640161065f565b6001600a86604051610d7c9190611f49565b908152604051908190036020019020805491151560ff19909216919091179055610daa600780546001019055565b6006546040516001600160a01b03909116903480156108fc02916000818181858888f19350505050158015610de3573d6000803e3d6000fd5b506000610def60075490565b9050610dfb8882611602565b610e0e6001600160401b03881634611f78565b6000828152600b6020526040902055610e278742611f22565b6000828152600860205260409020805467ffffffffffffffff19166001600160401b0392909216919091179055610e5e8442611f22565b6000828152600960209081526040808320805467ffffffffffffffff19166001600160401b03958616179055600882529182902054915191909216815282917f2ec2be2c4b90c2cf13ecb6751a24daed6bb741ae5ed3f7371aabf9402f6d62e8910160405180910390a25050505050505050565b610edc338361113f565b610ef85760405162461bcd60e51b815260040161065f90611ea8565b610f048484848461179b565b50505050565b6060610f1582611072565b6000610f2c60408051602081019091526000815290565b90506000815111610f4c5760405180602001604052806000815250610f77565b80610f56846117ce565b604051602001610f67929190611f9a565b6040516020818303038152906040525b9392505050565b6001600160a01b03918216600090815260056020908152604080832093909416825291909152205460ff1690565b610fb4611366565b6001600160a01b0381166110195760405162461bcd60e51b815260206004820152602660248201527f4f776e61626c653a206e6577206f776e657220697320746865207a65726f206160448201526564647265737360d01b606482015260840161065f565b61078d81611463565b60006001600160e01b031982166380ac58cd60e01b148061105357506001600160e01b03198216635b5e139f60e01b145b8061052c57506301ffc9a760e01b6001600160e01b031983161461052c565b6000818152600260205260409020546001600160a01b031661078d5760405162461bcd60e51b8152602060048201526018602482015277115490cdcc8c4e881a5b9d985b1a59081d1bdad95b88125160421b604482015260640161065f565b600081815260046020526040902080546001600160a01b0319166001600160a01b03841690811790915581906111068261081d565b6001600160a01b03167f8c5be1e5ebec7d5bd14f71427d1e84f3dd0314c0f7b2291e5b200ac8c7c3b92560405160405180910390a45050565b60008061114b8361081d565b9050806001600160a01b0316846001600160a01b0316148061117257506111728185610f7e565b806111965750836001600160a01b031661118b846105c4565b6001600160a01b0316145b949350505050565b8054806111ed5760405162461bcd60e51b815260206004820152601b60248201527f436f756e7465723a2064656372656d656e74206f766572666c6f770000000000604482015260640161065f565b600019019055565b826001600160a01b03166112088261081d565b6001600160a01b03161461122e5760405162461bcd60e51b815260040161065f90611fc9565b6001600160a01b0382166112905760405162461bcd60e51b8152602060048201526024808201527f4552433732313a207472616e7366657220746f20746865207a65726f206164646044820152637265737360e01b606482015260840161065f565b61129d8383836001611860565b826001600160a01b03166112b08261081d565b6001600160a01b0316146112d65760405162461bcd60e51b815260040161065f90611fc9565b600081815260046020908152604080832080546001600160a01b03199081169091556001600160a01b0387811680865260038552838620805460001901905590871680865283862080546001019055868652600290945282852080549092168417909155905184937fddf252ad1be2c89b69c2b068fc378daa952ba7f163c4a11628f55a4df523b3ef91a4505050565b6006546001600160a01b031633146107d25760405162461bcd60e51b815260206004820181905260248201527f4f776e61626c653a2063616c6c6572206973206e6f7420746865206f776e6572604482015260640161065f565b60006113cb8261081d565b90506113db816000846001611860565b6113e48261081d565b600083815260046020908152604080832080546001600160a01b03199081169091556001600160a01b0385168085526003845282852080546000190190558785526002909352818420805490911690555192935084927fddf252ad1be2c89b69c2b068fc378daa952ba7f163c4a11628f55a4df523b3ef908390a45050565b600680546001600160a01b038381166001600160a01b0319831681179093556040519116919082907f8be0079c531659141344cd1fd0a4f28419497f9722a3daafe3b4186f6b6457e090600090a35050565b816001600160a01b0316836001600160a01b0316036115165760405162461bcd60e51b815260206004820152601960248201527f4552433732313a20617070726f766520746f2063616c6c657200000000000000604482015260640161065f565b6001600160a01b03838116600081815260056020908152604080832094871680845294825291829020805460ff191686151590811790915591519182527f17307eab39ab6107e8899845ad3d59bd9653f200f220920489ca2b5937696c31910160405180910390a3505050565b600080600080611592856118e8565b6040805160008152602081018083528b905260ff8516918101919091526060810183905260808101829052929550909350915060019060a0016020604051602081039080840390855afa1580156115ed573d6000803e3d6000fd5b5050604051601f190151979650505050505050565b6001600160a01b0382166116585760405162461bcd60e51b815260206004820181905260248201527f4552433732313a206d696e7420746f20746865207a65726f2061646472657373604482015260640161065f565b6000818152600260205260409020546001600160a01b0316156116bd5760405162461bcd60e51b815260206004820152601c60248201527f4552433732313a20746f6b656e20616c7265616479206d696e74656400000000604482015260640161065f565b6116cb600083836001611860565b6000818152600260205260409020546001600160a01b0316156117305760405162461bcd60e51b815260206004820152601c60248201527f4552433732313a20746f6b656e20616c7265616479206d696e74656400000000604482015260640161065f565b6001600160a01b038216600081815260036020908152604080832080546001019055848352600290915280822080546001600160a01b0319168417905551839291907fddf252ad1be2c89b69c2b068fc378daa952ba7f163c4a11628f55a4df523b3ef908290a45050565b6117a68484846111f5565b6117b284848484611917565b610f045760405162461bcd60e51b815260040161065f9061200e565b606060006117db83611a18565b60010190506000816001600160401b038111156117fa576117fa611cbb565b6040519080825280601f01601f191660200182016040528015611824576020820181803683370190505b5090508181016020015b600019016f181899199a1a9b1b9c1cb0b131b232b360811b600a86061a8153600a850494508461182e57509392505050565b6001811115610f04576001600160a01b038416156118a6576001600160a01b038416600090815260036020526040812080548392906118a0908490612060565b90915550505b6001600160a01b03831615610f04576001600160a01b038316600090815260036020526040812080548392906118dd908490611f65565b909155505050505050565b600080600083516041146118fb57600080fd5b5050506020810151604082015160609092015160001a92909190565b60006001600160a01b0384163b15611a0d57604051630a85bd0160e11b81526001600160a01b0385169063150b7a029061195b903390899088908890600401612073565b6020604051808303816000875af1925050508015611996575060408051601f3d908101601f19168201909252611993918101906120b0565b60015b6119f3573d8080156119c4576040519150601f19603f3d011682016040523d82523d6000602084013e6119c9565b606091505b5080516000036119eb5760405162461bcd60e51b815260040161065f9061200e565b805181602001fd5b6001600160e01b031916630a85bd0160e11b149050611196565b506001949350505050565b60008072184f03e93ff9f4daa797ed6e38ed64bf6a1f0160401b8310611a575772184f03e93ff9f4daa797ed6e38ed64bf6a1f0160401b830492506040015b6d04ee2d6d415b85acef81000000008310611a83576d04ee2d6d415b85acef8100000000830492506020015b662386f26fc100008310611aa157662386f26fc10000830492506010015b6305f5e1008310611ab9576305f5e100830492506008015b6127108310611acd57612710830492506004015b60648310611adf576064830492506002015b600a831061052c5760010192915050565b6001600160e01b03198116811461078d57600080fd5b600060208284031215611b1857600080fd5b8135610f7781611af0565b60005b83811015611b3e578181015183820152602001611b26565b50506000910152565b60008151808452611b5f816020860160208601611b23565b601f01601f19169290920160200192915050565b602081526000610f776020830184611b47565b600060208284031215611b9857600080fd5b5035919050565b80356001600160a01b0381168114611bb657600080fd5b919050565b60008060408385031215611bce57600080fd5b611bd783611b9f565b946020939093013593505050565b600080600060608486031215611bfa57600080fd5b611c0384611b9f565b9250611c1160208501611b9f565b9150604084013590509250925092565b600060208284031215611c3357600080fd5b610f7782611b9f565b80356001600160401b0381168114611bb657600080fd5b60008060408385031215611c6657600080fd5b82359150611c7660208401611c3c565b90509250929050565b60008060408385031215611c9257600080fd5b611c9b83611b9f565b915060208301358015158114611cb057600080fd5b809150509250929050565b634e487b7160e01b600052604160045260246000fd5b600082601f830112611ce257600080fd5b81356001600160401b0380821115611cfc57611cfc611cbb565b604051601f8301601f19908116603f01168101908282118183101715611d2457611d24611cbb565b81604052838152866020858801011115611d3d57600080fd5b836020870160208301376000602085830101528094505050505092915050565b60008060008060008060c08789031215611d7657600080fd5b611d7f87611b9f565b9550611d8d60208801611c3c565b945060408701356001600160401b03811115611da857600080fd5b611db489828a01611cd1565b94505060608701359250611dca60808801611c3c565b915060a087013590509295509295509295565b60008060008060808587031215611df357600080fd5b611dfc85611b9f565b9350611e0a60208601611b9f565b92506040850135915060608501356001600160401b03811115611e2c57600080fd5b611e3887828801611cd1565b91505092959194509250565b60008060408385031215611e5757600080fd5b611e6083611b9f565b9150611c7660208401611b9f565b600181811c90821680611e8257607f821691505b602082108103611ea257634e487b7160e01b600052602260045260246000fd5b50919050565b6020808252602d908201527f4552433732313a2063616c6c6572206973206e6f7420746f6b656e206f776e6560408201526c1c881bdc88185c1c1c9bdd9959609a1b606082015260800190565b634e487b7160e01b600052601160045260246000fd5b808202811582820484141761052c5761052c611ef5565b6001600160401b03818116838216019080821115611f4257611f42611ef5565b5092915050565b60008251611f5b818460208701611b23565b9190910192915050565b8082018082111561052c5761052c611ef5565b600082611f9557634e487b7160e01b600052601260045260246000fd5b500490565b60008351611fac818460208801611b23565b835190830190611fc0818360208801611b23565b01949350505050565b60208082526025908201527f4552433732313a207472616e736665722066726f6d20696e636f72726563742060408201526437bbb732b960d91b606082015260800190565b60208082526032908201527f4552433732313a207472616e7366657220746f206e6f6e20455243373231526560408201527131b2b4bb32b91034b6b83632b6b2b73a32b960711b606082015260800190565b8181038181111561052c5761052c611ef5565b6001600160a01b03858116825284166020820152604081018390526080606082018190526000906120a690830184611b47565b9695505050505050565b6000602082840312156120c257600080fd5b8151610f7781611af056fea2646970667358221220731d53004f16d5ee6491817076828c027c069b90e4f2fc7736c3d3838a29c07c64736f6c63430008110033",
    "linkReferences": {}
  },
  "methodIdentifiers": {
    "_price(uint256)": "faea173b",
    "approve(address,uint256)": "095ea7b3",
    "balanceOf(address)": "70a08231",
    "burn(uint256)": "42966c68",
    "cancelSubscription(uint256)": "21235083",
    "expiresAt(uint256)": "17c95709",
    "getApproved(uint256)": "081812fc",
    "isApprovedForAll(address,address)": "e985e9c5",
    "isRenewable(uint256)": "cde317af",
    "mintSubscription(address,uint64,bytes,uint256,uint64,uint256)": "b4061f8b",
    "name()": "06fdde03",
    "owner()": "8da5cb5b",
    "ownerOf(uint256)": "6352211e",
    "pause()": "8456cb59",
    "paused()": "5c975abb",
    "renewSubscription(uint256,uint64)": "776ce868",
    "renounceOwnership()": "715018a6",
    "safeTransferFrom(address,address,uint256)": "42842e0e",
    "safeTransferFrom(address,address,uint256,bytes)": "b88d4fde",
    "setApprovalForAll(address,bool)": "a22cb465",
    "supportsInterface(bytes4)": "01ffc9a7",
    "symbol()": "95d89b41",
    "tokenURI(uint256)": "c87b56dd",
    "transferFrom(address,address,uint256)": "23b872dd",
    "transferOwnership(address)": "f2fde38b",
    "unpause()": "3f4ba83a"
  },
  "id": 32
}